{
  "_format": "hh-sol-artifact-1",
  "contractName": "MerkleProof",
  "sourceName": "contracts/Merkle.sol",
  "abi": [
    {
      "inputs": [
        {
          "internalType": "bytes32",
          "name": "root",
          "type": "bytes32"
        },
        {
          "internalType": "bytes32",
          "name": "leaf",
          "type": "bytes32"
        },
        {
          "internalType": "bytes32[]",
          "name": "proof",
          "type": "bytes32[]"
        },
        {
          "internalType": "uint256[]",
          "name": "positions",
          "type": "uint256[]"
        }
      ],
      "name": "verify",
      "outputs": [
        {
          "internalType": "bool",
          "name": "",
          "type": "bool"
        }
      ],
      "stateMutability": "pure",
      "type": "function"
    }
  ],
  "bytecode": "0x608060405234801561001057600080fd5b50610593806100206000396000f3fe608060405234801561001057600080fd5b506004361061002b5760003560e01c80639bb6dcc814610030575b600080fd5b61004a600480360381019061004591906102d5565b610060565b60405161005791906103ba565b60405180910390f35b60008084905060005b84518110156101705760008582815181106100ad577f4e487b7100000000000000000000000000000000000000000000000000000000600052603260045260246000fd5b6020026020010151905060018583815181106100f2577f4e487b7100000000000000000000000000000000000000000000000000000000600052603260045260246000fd5b6020026020010151141561013057828160405160200161011392919061038e565b60405160208183030381529060405280519060200120925061015c565b808360405160200161014392919061038e565b6040516020818303038152906040528051906020012092505b5080806101689061047e565b915050610069565b50858114915050949350505050565b600061019261018d84610406565b6103d5565b905080838252602082019050828560208602820111156101b157600080fd5b60005b858110156101e157816101c788826102ab565b8452602084019350602083019250506001810190506101b4565b5050509392505050565b60006101fe6101f984610432565b6103d5565b9050808382526020820190508285602086028201111561021d57600080fd5b60005b8581101561024d578161023388826102c0565b845260208401935060208301925050600181019050610220565b5050509392505050565b600082601f83011261026857600080fd5b813561027884826020860161017f565b91505092915050565b600082601f83011261029257600080fd5b81356102a28482602086016101eb565b91505092915050565b6000813590506102ba8161052f565b92915050565b6000813590506102cf81610546565b92915050565b600080600080608085870312156102eb57600080fd5b60006102f9878288016102ab565b945050602061030a878288016102ab565b935050604085013567ffffffffffffffff81111561032757600080fd5b61033387828801610257565b925050606085013567ffffffffffffffff81111561035057600080fd5b61035c87828801610281565b91505092959194509250565b6103718161045e565b82525050565b6103886103838261046a565b6104c7565b82525050565b600061039a8285610377565b6020820191506103aa8284610377565b6020820191508190509392505050565b60006020820190506103cf6000830184610368565b92915050565b6000604051905081810181811067ffffffffffffffff821117156103fc576103fb610500565b5b8060405250919050565b600067ffffffffffffffff82111561042157610420610500565b5b602082029050602081019050919050565b600067ffffffffffffffff82111561044d5761044c610500565b5b602082029050602081019050919050565b60008115159050919050565b6000819050919050565b6000819050919050565b600061048982610474565b91507fffffffffffffffffffffffffffffffffffffffffffffffffffffffffffffffff8214156104bc576104bb6104d1565b5b600182019050919050565b6000819050919050565b7f4e487b7100000000000000000000000000000000000000000000000000000000600052601160045260246000fd5b7f4e487b7100000000000000000000000000000000000000000000000000000000600052604160045260246000fd5b6105388161046a565b811461054357600080fd5b50565b61054f81610474565b811461055a57600080fd5b5056fea2646970667358221220e8fef1a2f26c69f3b2c7a6230f92cc9f635f9ee9ea3ef31c16b19b70349d199b64736f6c63430008000033",
  "linkReferences": {},
  "deployedLinkReferences": {}
}