{
  "_format": "hh-sol-artifact-1",
  "contractName": "Whitelist",
  "sourceName": "contracts/Merkle.sol",
  "abi": [
    {
      "inputs": [
        {
          "internalType": "bytes32",
          "name": "_merkleRoot",
          "type": "bytes32"
        }
      ],
      "stateMutability": "nonpayable",
      "type": "constructor"
    },
    {
      "inputs": [],
      "name": "merkleRoot",
      "outputs": [
        {
          "internalType": "bytes32",
          "name": "",
          "type": "bytes32"
        }
      ],
      "stateMutability": "view",
      "type": "function"
    },
    {
      "inputs": [
        {
          "internalType": "bytes32",
          "name": "root",
          "type": "bytes32"
        },
        {
          "internalType": "bytes32",
          "name": "leaf",
          "type": "bytes32"
        },
        {
          "internalType": "bytes32[]",
          "name": "proof",
          "type": "bytes32[]"
        },
        {
          "internalType": "uint256[]",
          "name": "positions",
          "type": "uint256[]"
        }
      ],
      "name": "verify",
      "outputs": [
        {
          "internalType": "bool",
          "name": "",
          "type": "bool"
        }
      ],
      "stateMutability": "pure",
      "type": "function"
    },
    {
      "inputs": [
        {
          "internalType": "bytes32[]",
          "name": "_proof",
          "type": "bytes32[]"
        },
        {
          "internalType": "uint256[]",
          "name": "_positions",
          "type": "uint256[]"
        }
      ],
      "name": "verifyWhitelist",
      "outputs": [
        {
          "internalType": "bool",
          "name": "",
          "type": "bool"
        }
      ],
      "stateMutability": "view",
      "type": "function"
    }
  ],
  "bytecode": "0x60a060405234801561001057600080fd5b5060405161086738038061086783398181016040528101906100329190610055565b80608081815250505061009f565b60008151905061004f81610088565b92915050565b60006020828403121561006757600080fd5b600061007584828501610040565b91505092915050565b6000819050919050565b6100918161007e565b811461009c57600080fd5b50565b6080516107a76100c06000396000818160c6015261011901526107a76000f3fe608060405234801561001057600080fd5b50600436106100415760003560e01c80632eb4a7ab1461004657806363355354146100645780639bb6dcc814610094575b600080fd5b61004e6100c4565b60405161005b919061056b565b60405180910390f35b61007e600480360381019061007991906103be565b6100e8565b60405161008b9190610550565b60405180910390f35b6100ae60048036038101906100a9919061042a565b610149565b6040516100bb9190610550565b60405180910390f35b7f000000000000000000000000000000000000000000000000000000000000000081565b600080336040516020016100fc9190610509565b6040516020818303038152906040528051906020012090506101407f0000000000000000000000000000000000000000000000000000000000000000828686610149565b91505092915050565b60008084905060005b8451811015610259576000858281518110610196577f4e487b7100000000000000000000000000000000000000000000000000000000600052603260045260246000fd5b6020026020010151905060018583815181106101db577f4e487b7100000000000000000000000000000000000000000000000000000000600052603260045260246000fd5b602002602001015114156102195782816040516020016101fc929190610524565b604051602081830303815290604052805190602001209250610245565b808360405160200161022c929190610524565b6040516020818303038152906040528051906020012092505b50808061025190610661565b915050610152565b50858114915050949350505050565b600061027b610276846105b7565b610586565b9050808382526020820190508285602086028201111561029a57600080fd5b60005b858110156102ca57816102b08882610394565b84526020840193506020830192505060018101905061029d565b5050509392505050565b60006102e76102e2846105e3565b610586565b9050808382526020820190508285602086028201111561030657600080fd5b60005b85811015610336578161031c88826103a9565b845260208401935060208301925050600181019050610309565b5050509392505050565b600082601f83011261035157600080fd5b8135610361848260208601610268565b91505092915050565b600082601f83011261037b57600080fd5b813561038b8482602086016102d4565b91505092915050565b6000813590506103a381610743565b92915050565b6000813590506103b88161075a565b92915050565b600080604083850312156103d157600080fd5b600083013567ffffffffffffffff8111156103eb57600080fd5b6103f785828601610340565b925050602083013567ffffffffffffffff81111561041457600080fd5b6104208582860161036a565b9150509250929050565b6000806000806080858703121561044057600080fd5b600061044e87828801610394565b945050602061045f87828801610394565b935050604085013567ffffffffffffffff81111561047c57600080fd5b61048887828801610340565b925050606085013567ffffffffffffffff8111156104a557600080fd5b6104b18782880161036a565b91505092959194509250565b6104ce6104c98261060f565b6106aa565b82525050565b6104dd81610621565b82525050565b6104ec8161062d565b82525050565b6105036104fe8261062d565b6106bc565b82525050565b600061051582846104bd565b60148201915081905092915050565b600061053082856104f2565b60208201915061054082846104f2565b6020820191508190509392505050565b600060208201905061056560008301846104d4565b92915050565b600060208201905061058060008301846104e3565b92915050565b6000604051905081810181811067ffffffffffffffff821117156105ad576105ac610707565b5b8060405250919050565b600067ffffffffffffffff8211156105d2576105d1610707565b5b602082029050602081019050919050565b600067ffffffffffffffff8211156105fe576105fd610707565b5b602082029050602081019050919050565b600061061a82610637565b9050919050565b60008115159050919050565b6000819050919050565b600073ffffffffffffffffffffffffffffffffffffffff82169050919050565b6000819050919050565b600061066c82610657565b91507fffffffffffffffffffffffffffffffffffffffffffffffffffffffffffffffff82141561069f5761069e6106d8565b5b600182019050919050565b60006106b5826106c6565b9050919050565b6000819050919050565b60006106d182610736565b9050919050565b7f4e487b7100000000000000000000000000000000000000000000000000000000600052601160045260246000fd5b7f4e487b7100000000000000000000000000000000000000000000000000000000600052604160045260246000fd5b60008160601b9050919050565b61074c8161062d565b811461075757600080fd5b50565b61076381610657565b811461076e57600080fd5b5056fea2646970667358221220701c13f732571fb3b8f61e24205fe80a3091d0ea7f32fd9efc1a115c82fea00164736f6c63430008000033",
  "linkReferences": {},
  "deployedLinkReferences": {}
}